{
  "contractName": "Verifier",
  "abi": [
    {
      "inputs": [],
      "name": "verifyAddress",
      "outputs": [
        {
          "internalType": "address",
          "name": "",
          "type": "address"
        }
      ],
      "stateMutability": "view",
      "type": "function",
      "constant": true
    },
    {
      "inputs": [
        {
          "internalType": "address",
          "name": "addr",
          "type": "address"
        }
      ],
      "name": "setVerifyAddress",
      "outputs": [],
      "stateMutability": "nonpayable",
      "type": "function"
    },
    {
      "inputs": [
        {
          "internalType": "uint256",
          "name": "amount",
          "type": "uint256"
        },
        {
          "internalType": "address",
          "name": "account",
          "type": "address"
        },
        {
          "internalType": "bytes",
          "name": "signature",
          "type": "bytes"
        }
      ],
      "name": "verify",
      "outputs": [
        {
          "internalType": "bool",
          "name": "",
          "type": "bool"
        }
      ],
      "stateMutability": "view",
      "type": "function",
      "constant": true
    }
  ],
  "bytecode": "0x608060405234801561001057600080fd5b506108e5806100206000396000f3fe608060405234801561001057600080fd5b50600436106100415760003560e01c806365925b9014610046578063b6e66b1614610090578063b7b9f7d5146100e7575b600080fd5b6000546100669073ffffffffffffffffffffffffffffffffffffffff1681565b60405173ffffffffffffffffffffffffffffffffffffffff90911681526020015b60405180910390f35b6100e561009e366004610749565b600080547fffffffffffffffffffffffff00000000000000000000000000000000000000001673ffffffffffffffffffffffffffffffffffffffff92909216919091179055565b005b6100fa6100f536600461076b565b61010a565b6040519015158152602001610087565b60008060405180604001604052808781526020018673ffffffffffffffffffffffffffffffffffffffff168152509050600061018785858080601f01602080910402602001604051908101604052809392919081815260200183838082843760009201919091525061018192508691506101b09050565b906103bc565b60005473ffffffffffffffffffffffffffffffffffffffff908116911614979650505050505050565b60006040518060800160405280605f8152602001610851605f91396040516020016101db91906107f2565b604080518083037fffffffffffffffffffffffffffffffffffffffffffffffffffffffffffffffe00181528282528051602091820120908301527f8dbb5189521e15d235d2bb07e5737ac2fa24c360f5563100426e223277c8e6de908201527fad7c5bef027816a800da1736444fb58a807ef4c9603b7848673f7e3a68eb14a560608201526115b36080820152731c56346cd2a2bf3202f771f50d3d14a367b4807060a08201527ff2d857f4a3edcb9b78b4d503bfe733db1e3f6cdc2b7971ee739626c97e86a55860c082015260e0016040516020818303038152906040528051906020012060405180606001604052806023815260200161082e602391396040516020016102ea91906107f2565b604080518083037fffffffffffffffffffffffffffffffffffffffffffffffffffffffffffffffe00181528282528051602091820120865187830151838601929092528484015273ffffffffffffffffffffffffffffffffffffffff16606080850191909152825180850390910181526080840190925281519101207f190100000000000000000000000000000000000000000000000000000000000060a083015260a282019290925260c281019190915260e201604051602081830303815290604052805190602001209050919050565b60008151604114156103f05760208201516040830151606084015160001a6103e686828585610485565b935050505061047f565b815160401415610418576020820151604083015161040f8583836106dd565b9250505061047f565b6040517f08c379a000000000000000000000000000000000000000000000000000000000815260206004820152601f60248201527f45434453413a20696e76616c6964207369676e6174757265206c656e6774680060448201526064015b60405180910390fd5b92915050565b60007f7fffffffffffffffffffffffffffffff5d576e7357a4501ddfe92f46681b20a0821115610537576040517f08c379a000000000000000000000000000000000000000000000000000000000815260206004820152602260248201527f45434453413a20696e76616c6964207369676e6174757265202773272076616c60448201527f75650000000000000000000000000000000000000000000000000000000000006064820152608401610476565b8360ff16601b148061054c57508360ff16601c145b6105d8576040517f08c379a000000000000000000000000000000000000000000000000000000000815260206004820152602260248201527f45434453413a20696e76616c6964207369676e6174757265202776272076616c60448201527f75650000000000000000000000000000000000000000000000000000000000006064820152608401610476565b6040805160008082526020820180845288905260ff871692820192909252606081018590526080810184905260019060a0016020604051602081039080840390855afa15801561062c573d6000803e3d6000fd5b50506040517fffffffffffffffffffffffffffffffffffffffffffffffffffffffffffffffe0015191505073ffffffffffffffffffffffffffffffffffffffff81166106d4576040517f08c379a000000000000000000000000000000000000000000000000000000000815260206004820152601860248201527f45434453413a20696e76616c6964207369676e617475726500000000000000006044820152606401610476565b95945050505050565b60007f7fffffffffffffffffffffffffffffffffffffffffffffffffffffffffffffff821660ff83901c601b0161071686828785610485565b9695505050505050565b803573ffffffffffffffffffffffffffffffffffffffff8116811461074457600080fd5b919050565b60006020828403121561075b57600080fd5b61076482610720565b9392505050565b6000806000806060858703121561078157600080fd5b8435935061079160208601610720565b9250604085013567ffffffffffffffff808211156107ae57600080fd5b818701915087601f8301126107c257600080fd5b8135818111156107d157600080fd5b8860208285010111156107e357600080fd5b95989497505060200194505050565b6000825160005b8181101561081357602081860181015185830152016107f9565b81811115610822576000828501525b50919091019291505056fe4269642875696e7432353620616d6f756e742c61646472657373206163636f756e7429454950373132446f6d61696e28737472696e67206e616d652c737472696e672076657273696f6e2c75696e7432353620636861696e49642c6164647265737320766572696679696e67436f6e74726163742c627974657333322073616c7429a2646970667358221220e2becb9011c17590c624f975556a1ee9394a9f61aa7fa228f0ab486c766ff03064736f6c63430008070033",
  "immutableReferences": {},
  "source": "pragma experimental ABIEncoderV2;\npragma solidity ^0.8.0;\n\n\n// File @openzeppelin/contracts/utils/cryptography/ECDSA.sol@v4.2.0\n\npragma solidity ^0.8.0;\n\n/**\n * @dev Elliptic Curve Digital Signature Algorithm (ECDSA) operations.\n *\n * These functions can be used to verify that a message was signed by the holder\n * of the private keys of a given address.\n */\nlibrary ECDSA {\n    /**\n     * @dev Returns the address that signed a hashed message (`hash`) with\n     * `signature`. This address can then be used for verification purposes.\n     *\n     * The `ecrecover` EVM opcode allows for malleable (non-unique) signatures:\n     * this function rejects them by requiring the `s` value to be in the lower\n     * half order, and the `v` value to be either 27 or 28.\n     *\n     * IMPORTANT: `hash` _must_ be the result of a hash operation for the\n     * verification to be secure: it is possible to craft signatures that\n     * recover to arbitrary addresses for non-hashed data. A safe way to ensure\n     * this is by receiving a hash of the original message (which may otherwise\n     * be too long), and then calling {toEthSignedMessageHash} on it.\n     *\n     * Documentation for signature generation:\n     * - with https://web3js.readthedocs.io/en/v1.3.4/web3-eth-accounts.html#sign[Web3.js]\n     * - with https://docs.ethers.io/v5/api/signer/#Signer-signMessage[ethers]\n     */\n    function recover(bytes32 hash, bytes memory signature) internal pure returns (address) {\n        // Check the signature length\n        // - case 65: r,s,v signature (standard)\n        // - case 64: r,vs signature (cf https://eips.ethereum.org/EIPS/eip-2098) _Available since v4.1._\n        if (signature.length == 65) {\n            bytes32 r;\n            bytes32 s;\n            uint8 v;\n            // ecrecover takes the signature parameters, and the only way to get them\n            // currently is to use assembly.\n            assembly {\n                r := mload(add(signature, 0x20))\n                s := mload(add(signature, 0x40))\n                v := byte(0, mload(add(signature, 0x60)))\n            }\n            return recover(hash, v, r, s);\n        } else if (signature.length == 64) {\n            bytes32 r;\n            bytes32 vs;\n            // ecrecover takes the signature parameters, and the only way to get them\n            // currently is to use assembly.\n            assembly {\n                r := mload(add(signature, 0x20))\n                vs := mload(add(signature, 0x40))\n            }\n            return recover(hash, r, vs);\n        } else {\n            revert(\"ECDSA: invalid signature length\");\n        }\n    }\n\n    /**\n     * @dev Overload of {ECDSA-recover} that receives the `r` and `vs` short-signature fields separately.\n     *\n     * See https://eips.ethereum.org/EIPS/eip-2098[EIP-2098 short signatures]\n     *\n     * _Available since v4.2._\n     */\n    function recover(\n        bytes32 hash,\n        bytes32 r,\n        bytes32 vs\n    ) internal pure returns (address) {\n        bytes32 s;\n        uint8 v;\n        assembly {\n            s := and(vs, 0x7fffffffffffffffffffffffffffffffffffffffffffffffffffffffffffffff)\n            v := add(shr(255, vs), 27)\n        }\n        return recover(hash, v, r, s);\n    }\n\n    /**\n     * @dev Overload of {ECDSA-recover} that receives the `v`, `r` and `s` signature fields separately.\n     */\n    function recover(\n        bytes32 hash,\n        uint8 v,\n        bytes32 r,\n        bytes32 s\n    ) internal pure returns (address) {\n        // EIP-2 still allows signature malleability for ecrecover(). Remove this possibility and make the signature\n        // unique. Appendix F in the Ethereum Yellow paper (https://ethereum.github.io/yellowpaper/paper.pdf), defines\n        // the valid range for s in (281): 0 < s < secp256k1n  2 + 1, and for v in (282): v  {27, 28}. Most\n        // signatures from current libraries generate a unique signature with an s-value in the lower half order.\n        //\n        // If your library generates malleable signatures, such as s-values in the upper range, calculate a new s-value\n        // with 0xFFFFFFFFFFFFFFFFFFFFFFFFFFFFFFFEBAAEDCE6AF48A03BBFD25E8CD0364141 - s1 and flip v from 27 to 28 or\n        // vice versa. If your library also generates signatures with 0/1 for v instead 27/28, add 27 to v to accept\n        // these malleable signatures as well.\n        require(\n            uint256(s) <= 0x7FFFFFFFFFFFFFFFFFFFFFFFFFFFFFFF5D576E7357A4501DDFE92F46681B20A0,\n            \"ECDSA: invalid signature 's' value\"\n        );\n        require(v == 27 || v == 28, \"ECDSA: invalid signature 'v' value\");\n\n        // If the signature is valid (and not malleable), return the signer address\n        address signer = ecrecover(hash, v, r, s);\n        require(signer != address(0), \"ECDSA: invalid signature\");\n\n        return signer;\n    }\n\n    /**\n     * @dev Returns an Ethereum Signed Message, created from a `hash`. This\n     * produces hash corresponding to the one signed with the\n     * https://eth.wiki/json-rpc/API#eth_sign[`eth_sign`]\n     * JSON-RPC method as part of EIP-191.\n     *\n     * See {recover}.\n     */\n    function toEthSignedMessageHash(bytes32 hash) internal pure returns (bytes32) {\n        // 32 is the length in bytes of hash,\n        // enforced by the type signature above\n        return keccak256(abi.encodePacked(\"\\x19Ethereum Signed Message:\\n32\", hash));\n    }\n\n    /**\n     * @dev Returns an Ethereum Signed Typed Data, created from a\n     * `domainSeparator` and a `structHash`. This produces hash corresponding\n     * to the one signed with the\n     * https://eips.ethereum.org/EIPS/eip-712[`eth_signTypedData`]\n     * JSON-RPC method as part of EIP-712.\n     *\n     * See {recover}.\n     */\n    function toTypedDataHash(bytes32 domainSeparator, bytes32 structHash) internal pure returns (bytes32) {\n        return keccak256(abi.encodePacked(\"\\x19\\x01\", domainSeparator, structHash));\n    }\n}\n\nimport \"../contracts/interfaces/IWhitelist.sol\";\n\ncontract Verifier is IWhitelist{\n    using ECDSA for bytes32;\n    uint256 constant chainId = 0x15b3;\n    address constant verifyingContract = 0x1C56346CD2A2Bf3202F771f50d3D14a367B48070;\n    bytes32 constant salt = 0xf2d857f4a3edcb9b78b4d503bfe733db1e3f6cdc2b7971ee739626c97e86a558;\n\n    address public verifyAddress;\n    \n    string private constant EIP712_DOMAIN  = \"EIP712Domain(string name,string version,uint256 chainId,address verifyingContract,bytes32 salt)\";\n    string private constant BID_TYPE = \"Bid(uint256 amount,address account)\";\n    \n    bytes32 private constant EIP712_DOMAIN_TYPEHASH = keccak256(abi.encodePacked(EIP712_DOMAIN));\n\n    bytes32 private constant BID_TYPEHASH = keccak256(abi.encodePacked(BID_TYPE));\n    bytes32 private constant DOMAIN_SEPARATOR = keccak256(abi.encode(\n        EIP712_DOMAIN_TYPEHASH,\n        keccak256(\"My amazing dApp\"),\n        keccak256(\"2\"),\n        chainId,\n        verifyingContract,\n        salt\n    ));\n    \n    struct Bid {\n        uint256 amount;\n        address account;\n    }\n    \n    function hashBid(Bid memory bid) private pure returns (bytes32){\n        return keccak256(abi.encodePacked(\n            \"\\x19\\x01\",\n            DOMAIN_SEPARATOR,\n            keccak256(abi.encode(\n                BID_TYPEHASH,\n                bid.amount,\n                bid.account\n            ))\n        ));\n    }\n\n    function setVerifyAddress(address addr) public{\n        verifyAddress = addr;\n    }\n\n    function verify(uint256 amount,address account,bytes calldata signature) override public view returns(bool) {\n        Bid memory bid = Bid({\n            amount: amount,\n            account: account\n        });\n\n        address recoveredAddress = hashBid(bid).recover(signature);\n        return recoveredAddress==verifyAddress;\n    }\n}",
  "sourcePath": "/Users/junhu/Mine/HashWorld/contract/truffle/contracts/Verifier.sol",
  "compiler": {
    "name": "solc",
    "version": "0.8.7+commit.e28d00a7.Emscripten.clang"
  },
  "schemaVersion": "3.4.3",
  "updatedAt": "2021-09-27T03:09:46.766Z",
  "networkType": "ethereum",
  "devdoc": {
    "kind": "dev",
    "methods": {},
    "version": 1
  },
  "userdoc": {
    "kind": "user",
    "methods": {},
    "version": 1
  }
}